:100000000C9434000C943E000C943E000C943E0082
:100010000C943E000C943E000C943E000C943E0068
:100020000C943E000C943E000C943E000C943E0058
:100030000C943E000C943E000C943E000C943E0048
:100040000C943E000C943E000C943E000C943E0038
:100050000C943E000C943E000C943E000C943E0028
:100060000C943E000C943E0011241FBECFEFD8E04C
:10007000DEBFCDBF0E945B000C9432020C940000E6
:10008000219A8AB18B7E8AB9A0E8B0E08C918E7FEC
:100090008C938C9182608C93E1E8F0E080818861A0
:1000A00080838C9180688C93808184608083808140
:1000B0008C7F80830895CF93DF9300D000D0CDB79D
:1000C000DEB70E94400083E294EF90938700809314
:1000D000860089E698E19093890080938800212C1E
:1000E000312CC12CD12CE12CF12C00E010E020E0CF
:1000F00081E090E09C838B8389B199B19071998361
:10010000492E512C612C712C812C912C5401982F4B
:1001100094709A8382FF31C030E040E050E060E0AC
:1001200070E080E090E0A0E00E94FC0031F52FEF4D
:1001300032E587E0215030408040E1F700C0000008
:100140002B813C812A30310524F42F5F3F4F3C83C3
:100150002B832B813C81B901330F880B990B0E94B3
:10016000390123E33FE443EC55E40E949D010E94E2
:1001700008017093890060938800398131110EC0A5
:10018000412C512C612C712C812C912CA12CB12C47
:1001900012016301740185012A81AECF9101A6018C
:1001A000B701C801A0E00E94FC0091F78FEF92E533
:1001B00027E0815090402040E1F700C000008B8193
:1001C0009C818130910519F001979C838B832B8151
:1001D0003C81B901330F880B990B0E94390123E34D
:1001E0003FE443EC55E40E949D010E940801709396
:1001F000890060938800CCCF0024A7FD00942A17C3
:10020000300540055005600570058005900508958E
:100210000E947C0188F09F5798F0B92F9927B75119
:10022000B0F0E1F0660F771F881F991F1AF0BA959A
:10023000C9F714C0B13091F00E949601B1E0089561
:100240000C949601672F782F8827B85F39F0B93F53
:10025000CCF3869577956795B395D9F73EF490954D
:100260008095709561957F4F8F4F9F4F0895E894CB
:1002700009C097FB3EF490958095709561957F4FEE
:100280008F4F9F4F9923A9F0F92F96E9BB2793959C
:10029000F695879577956795B795F111F8CFFAF4AC
:1002A000BB0F11F460FF1BC06F5F7F4F8F4F9F4FDD
:1002B00016C0882311F096E911C0772321F09EE83B
:1002C000872F762F05C0662371F096E8862F70E0A1
:1002D00060E02AF09A95660F771F881FDAF7880F7B
:1002E0009695879597F9089557FD9058440F551F97
:1002F00059F05F3F71F04795880F97FB991F61F0A8
:100300009F3F79F087950895121613061406551F1E
:10031000F2CF4695F1DF08C0161617061806991F8A
:10032000F1CF86957105610508940895E894BB277F
:1003300066277727CB0197F908950E94B0010C94A6
:1003400021020E94130238F00E941A0220F0952325
:1003500011F00C940A020C94100211240C949701D1
:100360000E94740170F3959FC1F3950F50E0551FE3
:10037000629FF001729FBB27F00DB11D639FAA27FA
:10038000F00DB11DAA1F649F6627B00DA11D661F49
:10039000829F2227B00DA11D621F739FB00DA11D6A
:1003A000621F839FA00D611D221F749F3327A00D24
:1003B000611D231F849F600D211D822F762F6A2FC0
:1003C00011249F5750409AF0F1F088234AF0EE0F25
:1003D000FF1FBB1F661F771F881F91505040A9F752
:1003E0009E3F510580F00C940A020C9497015F3FE8
:1003F000E4F3983ED4F3869577956795B795F7958E
:10040000E7959F5FC1F7FE2B880F911D9695879505
:1004100097F9089597F99F6780E870E060E0089584
:100420009FEF80EC089500240A941616170618060C
:100430000906089500240A941216130614060506E8
:100440000895092E0394000C11F4882352F0BB0F79
:1004500040F4BF2B11F460FF04C06F5F7F4F8F4FDC
:080460009F4F0895F894FFCFAF
:00000001FF
