:100000000C9434000C9451000C9451000C94510049
:100010000C9451000C9451000C9451000C9451001C
:100020000C9451000C9451000C9451000C9451000C
:100030000C9451000C9451000C9451000C945100FC
:100040000C9451000C9451000C94DF000C9451005E
:100050000C9451000C9451000C9451000C945100DC
:100060000C9451000C94510011241FBECFEFD8E026
:10007000DEBFCDBF11E0A0E0B1E0E4ECF2E002C0F1
:1000800005900D92AC33B107D9F721E0ACE3B1E0B4
:1000900001C01D92A534B207E1F70E9451010C94F2
:1000A00060010C9400009093C5008093C40088E91F
:1000B0008093C10086E08093C20008959091C000B3
:1000C00095FFFCCF8093C60008958091C00087FF04
:1000D000FCCF8091C600089584B5836A84BD85B540
:1000E000816085BDE0EBF0E0808183628083E1EB9D
:1000F000F0E0808181608083089567BD88BD409372
:10010000B40008950F931F93CF938C01C0E0F801C2
:10011000EC0FF11D8081882321F00E945E00CF5FEB
:10012000F6CFCF911F910F91089590ED980F9A30CF
:1001300010F4892F08959FEB980F963010F4875391
:1001400008959FE9980F963010F4875508958FEF22
:100150000895CF93DF93D62F0E949500C82F8D2F3F
:100160000E949500C7FD08C087FD06C090E1C90246
:1001700090011124822B01C080E0DF91CF9108957E
:10018000FC0180818332C1F4DF0111969F01295F58
:100190003F4F8D91982F9F7D9154963018F080534A
:1001A0008A3050F42A173B07A1F721E090E08781BD
:1001B000811120E0822F089580E090E008951F9241
:1001C0000F920FB60F9211242F933F934F935F938B
:1001D0006F937F938F939F93AF93BF93CF93DF934F
:1001E000EF93FF93C091C6008C2F0E945E00E091B8
:1001F0003C01CA3011F0CD30A1F5F0E0E35CFE4FD8
:1002000010828DE391E00E94C000892B19F180914A
:100210003D018332F9F460913F0180913E010E94DB
:10022000A900C82F60914101809140010E94A9005E
:10023000D82F60914301809142010E94A900D7BD4F
:10024000C8BD8093B4008AE00E945E008DE00E94E9
:100250005E0004C080E091E00E94820010923C01A8
:100260000DC0E73018F081E191E0F6CF81E08E0F0C
:1002700080933C01F0E0E35CFE4FC083FF91EF917F
:10028000DF91CF91BF91AF919F918F917F916F91AE
:100290005F914F913F912F910F900FBE0F901F9044
:1002A00018958AB188668AB988E090E00E94530068
:1002B0000E946C00789487E291E00E948200FFCF58
:0402C000F894FFCFE0
:1002C4000D0A6261642072676220636F64650D0ABF
:1002D400000D0A746F6F206C6F6E67207267622066
:1002E400636F64650D0A007761697420666F72201C
:0C02F40072676220636F64653A0D0A00B7
:00000001FF
